{
  "contractName": "Todo",
  "abi": [
    {
      "anonymous": false,
      "inputs": [
        {
          "indexed": false,
          "internalType": "uint256",
          "name": "id",
          "type": "uint256"
        },
        {
          "indexed": false,
          "internalType": "string",
          "name": "task",
          "type": "string"
        },
        {
          "indexed": false,
          "internalType": "bool",
          "name": "checked",
          "type": "bool"
        }
      ],
      "name": "TaskChecked",
      "type": "event"
    },
    {
      "anonymous": false,
      "inputs": [
        {
          "indexed": false,
          "internalType": "uint256",
          "name": "id",
          "type": "uint256"
        },
        {
          "indexed": false,
          "internalType": "string",
          "name": "task",
          "type": "string"
        },
        {
          "indexed": false,
          "internalType": "bool",
          "name": "checked",
          "type": "bool"
        }
      ],
      "name": "TaskCreated",
      "type": "event"
    },
    {
      "constant": true,
      "inputs": [],
      "name": "count",
      "outputs": [
        {
          "internalType": "uint256",
          "name": "",
          "type": "uint256"
        }
      ],
      "payable": false,
      "stateMutability": "view",
      "type": "function"
    },
    {
      "constant": true,
      "inputs": [
        {
          "internalType": "uint256",
          "name": "",
          "type": "uint256"
        }
      ],
      "name": "todoList",
      "outputs": [
        {
          "internalType": "address",
          "name": "owner",
          "type": "address"
        },
        {
          "internalType": "uint256",
          "name": "id",
          "type": "uint256"
        },
        {
          "internalType": "string",
          "name": "task",
          "type": "string"
        },
        {
          "internalType": "bool",
          "name": "checked",
          "type": "bool"
        }
      ],
      "payable": false,
      "stateMutability": "view",
      "type": "function"
    },
    {
      "constant": false,
      "inputs": [
        {
          "internalType": "string",
          "name": "task",
          "type": "string"
        }
      ],
      "name": "addTask",
      "outputs": [],
      "payable": false,
      "stateMutability": "nonpayable",
      "type": "function"
    },
    {
      "constant": false,
      "inputs": [
        {
          "internalType": "uint256",
          "name": "id",
          "type": "uint256"
        }
      ],
      "name": "ToggleCheckTask",
      "outputs": [],
      "payable": false,
      "stateMutability": "nonpayable",
      "type": "function"
    }
  ],
  "bytecode": "0x608060405234801561001057600080fd5b5061080a806100206000396000f3fe608060405234801561001057600080fd5b506004361061004c5760003560e01c806306661abd1461005157806357e77e861461006f57806358c2d4691461009d5780636723856214610189575b600080fd5b610059610244565b6040518082815260200191505060405180910390f35b61009b6004803603602081101561008557600080fd5b810190808035906020019092919050505061024a565b005b6100c9600480360360208110156100b357600080fd5b8101908080359060200190929190505050610428565b604051808573ffffffffffffffffffffffffffffffffffffffff1673ffffffffffffffffffffffffffffffffffffffff1681526020018481526020018060200183151515158152602001828103825284818151815260200191508051906020019080838360005b8381101561014b578082015181840152602081019050610130565b50505050905090810190601f1680156101785780820380516001836020036101000a031916815260200191505b509550505050505060405180910390f35b6102426004803603602081101561019f57600080fd5b81019080803590602001906401000000008111156101bc57600080fd5b8201836020820111156101ce57600080fd5b803590602001918460018302840111640100000000831117156101f057600080fd5b91908080601f016020809104026020016040519081016040528093929190818152602001838380828437600081840152601f19601f82011690508083019250505050505050919291929050505061051d565b005b60005481565b6001600082815260200190815260200160002060000160009054906101000a900473ffffffffffffffffffffffffffffffffffffffff1673ffffffffffffffffffffffffffffffffffffffff163373ffffffffffffffffffffffffffffffffffffffff16146102b857600080fd5b6001600082815260200190815260200160002060030160009054906101000a900460ff16156001600083815260200190815260200160002060030160006101000a81548160ff0219169083151502179055507f4fb101313a1e9d52a18fb9b8eb1a9d513001859c0713a1a866f5888d9b9e150b6001600083815260200190815260200160002060010154600160008481526020019081526020016000206002016001600085815260200190815260200160002060030160009054906101000a900460ff166040518084815260200180602001831515151581526020018281038252848181546001816001161561010002031660029004815260200191508054600181600116156101000203166002900480156104155780601f106103ea57610100808354040283529160200191610415565b820191906000526020600020905b8154815290600101906020018083116103f857829003601f168201915b505094505050505060405180910390a150565b60016020528060005260406000206000915090508060000160009054906101000a900473ffffffffffffffffffffffffffffffffffffffff1690806001015490806002018054600181600116156101000203166002900480601f0160208091040260200160405190810160405280929190818152602001828054600181600116156101000203166002900480156105005780601f106104d557610100808354040283529160200191610500565b820191906000526020600020905b8154815290600101906020018083116104e357829003601f168201915b5050505050908060030160009054906101000a900460ff16905084565b60405180608001604052803373ffffffffffffffffffffffffffffffffffffffff168152602001600054815260200182815260200160001515815250600160008054815260200190815260200160002060008201518160000160006101000a81548173ffffffffffffffffffffffffffffffffffffffff021916908373ffffffffffffffffffffffffffffffffffffffff1602179055506020820151816001015560408201518160020190805190602001906105da929190610730565b5060608201518160030160006101000a81548160ff0219169083151502179055509050507f05d0fb833127fc08168556d0e7ca9554fc3f6bc843b3b7d2bf1c35aea6bab6606001600080548152602001908152602001600020600101546001600080548152602001908152602001600020600201600160008054815260200190815260200160002060030160009054906101000a900460ff1660405180848152602001806020018315151515815260200182810382528481815460018160011615610100020316600290048152602001915080546001816001161561010002031660029004801561070c5780601f106106e15761010080835404028352916020019161070c565b820191906000526020600020905b8154815290600101906020018083116106ef57829003601f168201915b505094505050505060405180910390a1600080815480929190600101919050555050565b828054600181600116156101000203166002900490600052602060002090601f016020900481019282601f1061077157805160ff191683800117855561079f565b8280016001018555821561079f579182015b8281111561079e578251825591602001919060010190610783565b5b5090506107ac91906107b0565b5090565b6107d291905b808211156107ce5760008160009055506001016107b6565b5090565b9056fea265627a7a72315820c1c00f57d802b954580cc88cdafb33018e9c58e6df81efa0ee99465ec270455664736f6c63430005100032",
  "source": "pragma solidity >=0.4.22 <0.9.0;\r\n\r\ncontract Todo{\r\n    uint256 public count;\r\n    \r\n    struct Task{\r\n        address owner;\r\n        uint id;\r\n        string task;\r\n        bool checked;\r\n    }\r\n    mapping(uint=>Task) public todoList;\r\n    event TaskCreated(uint id,string task,bool checked);\r\n    event TaskChecked(uint id,string task,bool checked);\r\n\r\n    function addTask(string memory task) public {\r\n        todoList[count]=Task(msg.sender,count,task,false);\r\n        emit TaskCreated(todoList[count].id,todoList[count].task,todoList[count].checked);\r\n        count++;\r\n\r\n    }\r\n\r\n    function ToggleCheckTask(uint id) public {\r\n        require(msg.sender==todoList[id].owner);\r\n        todoList[id].checked=!todoList[id].checked;\r\n        emit TaskChecked(todoList[id].id,todoList[id].task,todoList[id].checked);\r\n\r\n    }\r\n}",
  "sourcePath": "C:/Users/SpideyPool/Documents/Blockchain/Todo/contracts/Todo.sol",
  "compiler": {
    "name": "solc",
    "version": "0.5.16+commit.9c3226ce.Emscripten.clang"
  },
  "schemaVersion": "3.3.4",
  "updatedAt": "2021-04-05T18:31:53.152Z",
  "networkType": "ethereum",
  "devdoc": {
    "methods": {}
  },
  "userdoc": {
    "methods": {}
  }
}